:020000040800F2
:10000000102700209D010008EF230008C31E0008F0
:10001000ED23000849070008352F00080000000004
:1000200000000000000000000000000005010008C2
:100030007D07000800000000490100086129000850
:10004000B7010008B7010008B7010008B7010008B0
:10005000B7010008B7010008B7010008B7010008A0
:10006000B7010008B7010008B7010008B701000890
:10007000B7010008B7010008B7010008B701000880
:10008000B7010008B7010008B7010008B701000870
:10009000B7010008B7010008B7010008B701000860
:1000A000B7010008B7010008B7010008B701000850
:1000B000B7010008B7010008DD290008B7010008F2
:1000C000B7010008B7010008B7010008B701000830
:1000D000B7010008AD2E0008152F0008B701000871
:1000E000B7010008B7010008B7010008DFF810D019
:1000F00000F09AFA004800471D390008AFF300806D
:1001000010270020224B19680868B0E8F00F80F330
:100110000988BFF36F8F4FF0000080F311884EF015
:100120000D0E70470000000006480068006880F36C
:10013000088862B661B6BFF34F8FBFF36F8F00DFE1
:1001400000BF00BF08ED00E0EFF30980BFF36F8F41
:100150000F4B1A6820E9F00F106008B54FF05000FF
:1001600080F31188BFF34F8FBFF36F8F04F0A8FAAD
:100170004FF0000080F31188BDE808401968086856
:10018000B0E8F00F80F30988BFF36F8F704700BFAE
:1001900038000020EFF305807047000006488047D4
:1001A00006480047FEE7FEE7FEE7FEE7FEE7FEE75C
:1001B000FEE7FEE7FEE7FEE7D9290008ED000008AC
:1001C000202A04DB203A21FA02F00021704721FAAC
:1001D00002F3D040C2F12002914008431946704713
:1001E00040EA01039B0703D009E008C9121F08C0B9
:1001F000042AFAD203E011F8013B00F8013B521E39
:10020000F9D27047D2B201E000F8012B491EFBD2AF
:1002100070470022F6E710B513460A460446194611
:10022000FFF7F0FF204610BD30B50B460146002019
:100230002022012409E021FA02F59D4205D303FAA8
:1002400002F5491B04FA02F52844151EA2F1010229
:10025000F1DC30BD2DE9F05F0546002092469B465B
:1002600088460646814640241BE0284641464746CC
:100270002246FFF7A5FF53465A46C01A914110D3B4
:1002800011461846224600F0E1F92D1A67EB0108E5
:100290004F4622460120002100F0D8F917EB000953
:1002A0004E41201EA4F10104DFDC484631462A46B7
:1002B0004346BDE8F09F2DE9FE4F804681EA0300EA
:1002C000C00F0C46009021F0004123F00045B8EB30
:1002D0000200A94105D24046214690461C460B46E5
:1002E000024623F00040104347D0270DC7F30A0011
:1002F000C3F30A510290401A019040286BDAC3F30D
:10030000130040F4801B0098924620B10023D2EBEA
:10031000030A63EB0B0B01985946C0F140025046AB
:1003200000F094F906460D4650465946019A00F0F1
:100330009CF910EB08006141002487EA115284EA1D
:10034000E7731A4340D0009A62B3019A012A4FEA38
:10035000075215DC001B61EB02014FF0004202EA7C
:100360000752CDE90042001C41F5801132462B4670
:1003700000F09CF903B0BDE8F08F40462146F9E754
:10038000001B61EB0201001C41F5801300185B416A
:100390002018A2F5001747EB030140EAD570B61903
:1003A0006D4111E06D084FEA360645EAC0754FEA27
:1003B0000752001B61EB0201001C41F58011490846
:1003C0004FEA30000019514132462B4603B0BDE8D8
:1003D000F04F00F05CB90098012240000023D0EB00
:1003E000020263EBE073009821464FEAE074B8EB39
:1003F000000061EB0401E9E783F000435BE781F073
:10040000004158E72DE9FE4F81EA030404F000445F
:1004100021F0004100944FF0000B23F0004350EA1C
:1004200001045ED052EA03045BD0C3F30A54C1F363
:100430000A552C44A4F2F3340194A0FB0254C1F3F6
:10044000130141F48011C3F3130343F4801301FB40
:10045000024400FB034E840A970A44EA815447EAA7
:100460008357A4FB076802958D0A05FB07854FEAB1
:10047000932C04FB0C542705029D4FEA065847EACB
:100480001637B5EB08056EEB070C870E920E47EAA0
:10049000811742EA8312A7FB0201B6EB0B0164EB62
:1004A00000042B0D43EA0C335E1844EB1C50DA4673
:1004B0005146E7FB0201C5F313044FEA0B3343EA4D
:1004C00014534FEA0432019C43EA0603A4F10C04DE
:1004D0000294009CCDE900B400F0E8F803B0BDE858
:1004E000F08F00200146F9E72DE9F04D81EA030481
:1004F00004F0004B21F0004514464FF0000A23F0B1
:10050000004150EA050220D054EA01021DD0C5F393
:100510000A570246C5F31303C1F31300C1F30A5689
:1005200040F4801543F48013A7EB0608101BD64651
:1005300008F2FD3873EB050002D308F1010801E071
:1005400092185B41B8F1000F03DA00200146BDE8C4
:10055000F08D00204FF48011064684460EE0171BF4
:1005600073EB050705D3121B63EB050306434CEA47
:10057000010C49084FEA300092185B4150EA01072C
:10058000EDD152EA030012D082EA040083EA0501A9
:10059000084305D0101BAB4106D20122002306E020
:1005A00000224FF0004302E06FF0010253101AEBFB
:1005B00006004CEB085110EB0A0041EB0B01BDE8C3
:1005C000F04D00F064B8C1F30A52C1F3130140F2D8
:1005D000FF3341F480119A4202DA0020014670474D
:1005E00040F233439A42A2F2334202DC5242FFF716
:1005F000E7BD00F02BB8000030B5041E71F1000417
:1006000004DB4FF00044404264EB0101141E73F11F
:10061000000405DB1C464FF00043524263EB040329
:10062000994208BF904230BD064C074D06E0E06895
:1006300040F0010394E8070098471034AC42F6D329
:10064000FFF758FD045A0008245A0008202A04DB4A
:10065000203A00FA02F1002070479140C2F12003D5
:1006600020FA03F3194390407047202A06DBCB178A
:10067000203A41FA02F043EAE07306E041FA02F35D
:10068000D040C2F12002914008431946704710B58E
:10069000141E73F1000408DA401C41F100019218A5
:1006A0005B411A4301D120F0010010BD2DE9F04D4E
:1006B00092469B4611B1B1FA81F202E0B0FA80F2A3
:1006C00020329046FFF7C2FF04460F4640EA0A0078
:1006D00041EA0B0153465A46084313D0114653EAE8
:1006E000010019D0C8F140025046FFF769FD0546E8
:1006F0000E46504659464246FFF7A8FF084305D02C
:10070000012004E020463946BDE8F08D0020054375
:1007100046EAE0762C4337430A986305E40AA0EBE7
:1007200008000022FD0A44EA47540A3002D500209E
:100730000146E9E7010510196941DDE9084500199D
:100740006941BDE8F04DA2E7FEE7000000224FF44A
:100750000041014800F093B900080140C2B24FF4D3
:100760000041014800F08BB900080140884201D2E5
:10077000084670479042FCD910467047704772B6E1
:10078000FEE710B590F821100022022905D00421BF
:10079000816380F82020012010BD01680B6823F0E0
:1007A0000E030B6001680B6823F001030B6090F8E7
:1007B0004030C46B012101FA03F3636080F821101B
:1007C00080F82020104610BD10B590F821100024AC
:1007D000022903D00421816301243DE001680A68F5
:1007E00022F00E020A6001680A6822F001020A6023
:1007F0001A4A0168914201D1012121E0174A1432BD
:10080000914201D110211BE0144A2832914201D1BA
:10081000891515E0114A3C32914201D189140FE04B
:100820000E4A5032914202D14FF4803108E00B4A17
:100830006432914202D14FF4801101E04FF0807197
:10084000064A083A5160012180F82110002180F801
:100850002010416B01B18847204610BD08000240BE
:1008600070B5044600F010F90546601C02D004483B
:100870000078044400F008F9401BA042FAD370BD90
:10088000280000202DE9F84FDFF8B8910024A9F1E5
:10089000040B23460F2709F1040AABF1040EC9E04B
:1008A0000125A5402A40AA427DD1674ED1F804C057
:1008B000ACEB0608B44532D014DCBCF1030F3AD0DF
:1008C00009DCBCF1000F2AD0BCF1010F1CD0BCF137
:1008D000020F31D11DE0BCF1110F17D0BCF1120F86
:1008E0002AD119E0B8F5881F19D006DCB8F5803F89
:1008F00015D0B8F5801F1FD111E0B8F5001F0ED03C
:10090000B8F5041F18D10AE0CB6815E0CB681B1DB1
:1009100012E0CB6808330FE0CB680C330CE08B6837
:100920002BB1012B4FF0080303D0456104E00423F1
:1009300002E0056100E00023FF2A01D8064601E03D
:1009400000F104064FEA840501D9A5F12005D6F887
:10095000008007FA05FC28EA0C0803FA05F548EAC6
:100960000508C6F800804D68ED0062D5374DAE69C8
:1009700046F00106AE61AD6924F0030605F00105FD
:100980000095334D06EB050CDCF80850A607360F32
:1009900007FA06F825EA0805DFF8B880404503D1D4
:1009A0004FF0000817E044E0DFF8AC80404502D18A
:1009B0004FF001080FE0DFF8A480404502D14FF06E
:1009C000020808E0DFF89880404502D14FF00308A4
:1009D00001E04FF0040808FA06F848EA0508CCF8E8
:1009E00008804D68D9F80060ED024D4601D51643E8
:1009F00000E096432E604D68DAF80060AD0255467F
:100A000001D5164300E096432E604D68DBF8006088
:100A1000AD035D4601D5164300E096432E604D6858
:100A2000DEF80060ED03754601D5164300E09643FD
:100A30002E60641C0D682A46E5407FF431AFBDE8A6
:100A4000F88F00000804014000001110001002405F
:100A50000000014000080140000C0140001001406E
:100A6000001401408068084000D001207047C2682F
:100A700021EA02030A4043EA0241016170470AB1D8
:100A8000016170470904FBE7014880687047000076
:100A90002800002070B5040025D094F83D00002502
:100AA00020B984F83C50204600F04EF9242084F808
:100AB0003D002068016821F00101016020680168A3
:100AC00041F4004101602068016821F400410160A7
:100AD00000F0F8FA4D4A6168914201D84C4900E0B3
:100AE0004C49884201D2012070BD4B492368B0FBBC
:100AF000F1F15E6826F03F060E435E606368934244
:100B000006D94FF4967359434FF47A73B1FBF3F15E
:100B10002368491C1E6A26F03F063143196261684A
:100B2000914210D84900401EB0FBF1F2521CC2F3B2
:100B30000B02042A01D2042022E0B0FBF1F0401C99
:100B4000C0F30B001CE0A268F2B301EBC10303EB9E
:100B50000116431EB3FBF6F35B1C43F480431B05F5
:100B600049D092B301EBC10202EB0111401EB0FB70
:100B7000F1F0401CC0F30B0040F4804040F4004012
:100B80002168CA694CF6FF739A431043C861D4E9DF
:100B9000071001432068026822F0C002114301607F
:100BA000D4E9030101432068826848F2FF339A4385
:100BB00011438160D4E9050108432168CA6822F025
:100BC000FF021043C86001E00EE016E020680168F3
:100BD00041F0010101602564202084F83D00256377
:100BE00084F83E50002070BD01EB4106431EB3FB6C
:100BF000F6F35B1CB3E70120C2E701EB4101401EA5
:100C0000B0FBF1F0401CC0F30B00B7E7A086010079
:100C100080841E0000093D0040420F002DE9F84F7E
:100C20001F4690468A460446DDF82890FFF72CFFC1
:100C3000054694F83D0020287FD119230122404920
:100C40002046009501F0D0F9002876D194F83C00B8
:100C5000012872D0012084F83C0020680168C9078F
:100C600003D1016841F0010101602068016821F4AD
:100C700000610160212084F83D00102084F83E00CE
:100C800000262664C4F824806785608D20852D4861
:100C9000E0622B464A465146204601F02BF990B9B6
:100CA000206841698069009036E02A46494620461E
:100CB00001F040FA50B1206C042804D1206801688A
:100CC00041F4007101600120BDE8F88F606A21687D
:100CD00000780861606A401C6062618D491E618510
:100CE000218D491E89B2218522685369DB435B0748
:100CF0000BD451B100781061606A401C6062608D55
:100D0000401E6085208D401E20852A46494620468B
:100D100001F03EF90028CED1208D0028C5D154F82D
:100D20003D0B016841F400710160202004F81E09A8
:100D3000E67766770020C7E7FFE70220C4E70000F8
:100D4000020010000000FFFF10B586B000210091E6
:100D500001910291039100680F4988421AD10F4C0A
:100D6000A06940F00800A061A069694600F0080091
:100D70000490C020009012200190032003900848A6
:100D8000FFF780FDE06940F40010E061E06900F4E5
:100D90000010049006B010BD005400400010024046
:100DA000000C01401CB502238DF804000A208DF8C8
:100DB0000510009001AA78210148FFF72FFF1CBD04
:100DC000C4000020024881680278114481607047A5
:100DD00028000020074810B5016841F010010160AB
:100DE000032000F0A7F80F2000F006F800F050F8FC
:100DF000002010BD0020024030B505461F4887B0D6
:100E0000C16941F00401C161C06906A900F0040094
:100E1000009001A800F036F90498B0B100F052F942
:100E200040001749174AB0FBF1F11748491E02600C
:100E3000416040F2E7320021C0E903218160816115
:100E400000F04CFB040003D015E000F03BF9E8E7AC
:100E50000D4800F085FB04000DD11E2000F03CF889
:100E6000102D07D2002229461E2000F043F8074823
:100E7000056000E0012407B0204630BD00100240AC
:100E800040420F0000080040F00100202C0000202C
:100E90000F4808B5816941F001018161816901F064
:100EA00001010091C16941F08051C161C069002216
:100EB00000F0805000900F21901E00F01BF80548B4
:100EC000416821F0E06141F00071416008BD00001F
:100ED0000010024000000140002809DB00F01F0262
:100EE000012191404009800000F1E020C0F800118C
:100EF00070470000F0B40E4B1B680C46C3F302238E
:100F0000C3F10705042D00D90425191D072901D2B5
:100F1000002300E0DB1E012606FA05F1491E2140F0
:100F200099409E40761E16403143F0BC02F026B830
:100F30000CED00E0064900F0070208684FF6FF03D9
:100F4000184040EA0220034A10430860704700003E
:100F50000CED00E00000FA052DE9F0470F46050012
:100F600061D0434E306800F00700B84209D23068C3
:100F700020F0070038433060306800F00700B842C6
:100F800051D128683B4C810712D5400703D56068D2
:100F900040F4E06060602878000703D5606840F4A2
:100FA000605060606068A96820F0F00008436060ED
:100FB0002878C00728D06868012810D02168022846
:100FC00010D0890700292EDA616821F0030101435E
:100FD0006160FFF759FD804641F288390DE02168D4
:100FE0008903EFE78901EDE7FFF74EFDA0EB08016C
:100FF000494502D90320BDE8F0876068696800F0C0
:101000000C00B0EB810FEFD1306800F00700B84260
:101010000BD9306820F0070038433060306800F0AA
:101020000700B84201D00120E5E72878400705D540
:101030006068E96820F4E060084360602878000791
:1010400006D56068296920F4605040EAC1006060FC
:1010500000F058F86168084AC1F30311515CC840B8
:101060000649086006480068FFF7C6FE0020C2E790
:1010700000200240001002406251000834000020AD
:101080002C0000200F2202600C4A536803F0030377
:101090004360536803F0F0038360536803F4E06334
:1010A000C36052684FF4E06303EAD202026104486D
:1010B000006800F007000860704700000010024060
:1010C000002002400448054900684968044AC1F309
:1010D0000221515CC84070473400002000100240DB
:1010E000725100080448054900684968044AC1F380
:1010F000C221515CC84070473400002000100240FB
:10110000725100080E4A51680E4801F00C03042B7E
:1011100011D0082B0FD10C48C1F38343C903C05C25
:101120000AD55168084AC1F34041921E515C054AF4
:101130005043B0FBF1F0704704494843704700004A
:101140000010024000127A005251000800093D00D0
:101150002DE9F84F040070D02078C04DC00749D069
:101160006868C0F38100012807D06868C0F3810077
:10117000022809D16868C00306D52868800339D5DC
:1011800060680028E7D035E06068B0F5803F0BD09C
:1011900010B1B0F5A02F11D0286820F4803028605D
:1011A000286820F4802002E0286840F4803028601D
:1011B000606890B1FFF768FC06460AE0286840F4D2
:1011C00080202860F0E700BFFFF75EFC801B6428EA
:1011D00073D828688003F7D50CE0FFF755FC064666
:1011E00005E000BFFFF750FC801B6428F0D828689A
:1011F0008003F7D420789A4E80074FF001094FF012
:10120000000839D5686810F00C0F07D06868C0F383
:101210008100022809D16868C00306D428688007C5
:1012200014D52069012808D110E02069B0B1C6F8B2
:101230000090FFF729FC074605E00AE1FFF724FCD0
:10124000C01B0228C4D828688007F7D528686169C0
:1012500020F0F80040EAC10028600DE0C6F80080E8
:10126000FFF712FC074604E0FFF70EFCC01B022844
:1012700023D828688007F7D4207800072CD5794830
:10128000A169D9B1C0F80090FFF7FEFB074604E062
:10129000FFF7FAFBC01B02280FD8686A8007F7D552
:1012A00071484FF4FA510068B0FBF1F0009000BFB4
:1012B0000098411E0091FAD20EE080E0C0F8008054
:1012C000FFF7E2FB074604E0FFF7DEFBC01B022846
:1012D00075D8686A8007F7D42078400760D5E86938
:1012E0000027C00008D4E86940F08050E861E86950
:1012F000012700F0805000905C480168C90513D4B4
:101300000168834641F480710160FFF7BDFB8246AE
:1013100006E000BFFFF7B8FBA0EB0A0064284ED838
:10132000DBF80000C005F5D5E06801280AD008B157
:10133000052813D0286A20F001002862286A20F0CE
:10134000040002E0286A40F001002862E06841F2EF
:10135000883B98B1FFF798FB82460BE0286A40F083
:1013600004002862EEE700BFFFF78EFBA0EB0A0146
:1013700059455AD8286A8007F6D50CE0FFF784FB58
:10138000824605E0FFF780FBA0EB0A0159454CD8E7
:10139000286A8007F6D41FB1E86920F08050E86120
:1013A000E06988B36968C1F38101022944D0022849
:1013B000C6F8608004D0FFF767FB044638E034E0ED
:1013C000FFF762FB074604E0FFF75EFBC01B022845
:1013D0002BD828688001F7D4206AB0F5803F05D16A
:1013E0006868A16820F4003008436860D4E9080107
:1013F0000843696821F4741108436860C6F8609076
:10140000FFF742FB044606E025E000BFFFF73CFB88
:10141000001B022809D828688001F7D51BE000BF0F
:10142000FFF732FB001B022802D90320BDE8F88F2A
:1014300028688001F4D40EE00128F7D06868226A99
:1014400000F48031914204D1616A00F47010884246
:1014500001D00120EAE70020E8E700000010024088
:1014600000004242800442423400002000700040EC
:101470007047704770B590F83C20012A26D00124AF
:1014800080F83C40022280F83D2003685A689D683D
:1014900022F070060A6832435A600D4B02689A4285
:1014A00008D0B2F1804F05D00A4B9A4202D00A4BC5
:1014B0009A4204D1496825F080031943916080F86D
:1014C0003D40002180F83C10084670BD022070BDF0
:1014D000002C0140000400400008004010B504004A
:1014E00003D094F83D0010B107E0012010BD0020AA
:1014F00084F83C00204600F01FF8022084F83D00EC
:10150000211D206801F070FA012084F8460084F85B
:101510003E0084F83F0084F8400084F8410084F8DD
:10152000420084F8430084F8440084F8450084F8BD
:101530003D00002010BD000008B500680649884243
:1015400008D10648C16941F00201C161C06900F0DB
:101550000200009008BD000000040040001002409E
:1015600090F83D10012901D001207047022180F838
:101570003D100168CA6842F00102CA6000680B4968
:10158000884208D0B0F1804F05D00949884202D086
:101590000849884204D1816801F00701062903D077
:1015A000016841F00101016000207047002C0140FA
:1015B000000400400008004070B5044690F83C006C
:1015C0000025012817D0012684F83C60022084F809
:1015D0003D002068826822F0770222F47F42826018
:1015E0000868502838D00DDC20284FD005DC90B397
:1015F000102811D14AE0022070BD302846D0402882
:101600000AD13BE060282FD070280DD0B0F5805F64
:1016100003D0B0F5005F12D0012584F83D600020B2
:1016200084F83C00284670BDCB68D1E901212068D0
:1016300001F023FA2068816841F0770109E0CB6866
:10164000D1E90121206801F018FA2068816841F48D
:1016500080418160E1E719E0CA684968206801F0CB
:10166000C1FA5021206806E0CA684968206801F084
:10167000CAFA6021206801F00AFACEE7CA68496810
:10168000206801F0AFFA40212068F4E722680146A3
:101690001046F0E770472DE9F04104460068C6683F
:1016A00005694FF00007A90713D5B10711D5F91E39
:1016B000016101202077206880698007204602D0E0
:1016C000FFF7E8FF04E000F0A5F8204600F037F946
:1016D0002777680716D5700714D521686FF00400C6
:1016E0000861022020772068806910F4407F20463E
:1016F00002D0FFF7CFFF04E000F08CF8204600F0A6
:101700001EF92777280715D5300713D521686FF004
:1017100008000861042020772068C06980072046FF
:1017200002D0FFF7B7FF04E000F074F8204600F0A5
:1017300006F92777E80616D5F00614D521686FF06C
:1017400010000861082020772068C06910F4407FED
:10175000204602D0FFF79EFF04E000F05BF8204631
:1017600000F0EDF82777E80708D0F00706D02168E9
:101770006FF001000861204600F030F9280608D516
:10178000300606D521686FF0800008612046FFF71B
:101790006FFE680608D5700606D521686FF0400018
:1017A0000861204600F024F9A8060AD5B00608D53D
:1017B00021686FF0200008612046BDE8F041FFF786
:1017C00058BEBDE8F081000000B585B00021009151
:1017D00001910291039100680B49884211D10B4895
:1017E000816941F0040181618069694600F004006B
:1017F0000490C02000900220019003900448FFF75D
:1018000041F805B000BD0000000400400010024097
:1018100000080140704770B5044690F83C0000266F
:101820000D4601280FD0012084F83C006AB1042A3B
:101830001DD0082A2FD00C2A3FD00126002084F882
:101840003C00304670BD022070BD206801F028F9D0
:101850002068816941F0080181612068816921F077
:1018600004018161206881692A69114311E02068BF
:1018700001F03EF92068816941F4006181612068CE
:10188000816921F480618161206881692A6941EA66
:1018900002218161D2E7206801F056F92068C16910
:1018A00041F00801C1612068C16921F00401C161F2
:1018B0002068C1692A69114311E0206801F070F9BC
:1018C0002068C16941F40061C1612068C16921F4E7
:1018D0008061C1612068C1692A6941EA0221C16150
:1018E000ACE710B5040003D094F83D0010B107E058
:1018F000012010BD002084F83C00204600F01EF8B6
:10190000022084F83D00211D206801F06DF80120BF
:1019100084F8460084F83E0084F83F0084F84000D4
:1019200084F8410084F8420084F8430084F84400BD
:1019300084F8450084F83D00002010BD70477047D2
:1019400010B50446022249B104290ED0082913D04B
:1019500094F84100012816D0012010BD94F83E00F3
:101960000128F9D184F83E200FE094F83F000128C7
:10197000F2D184F83F2008E094F840000128EBD130
:1019800084F8402001E084F841200122206801F021
:1019900067F80F492068884203D1426C42F4004244
:1019A00042642068884208D0B0F1804F05D00949D0
:1019B000884202D00849884204D1816801F00701B9
:1019C000062903D0016841F001010160002010BD2B
:1019D000002C01400004004000080040006803495A
:1019E000884201D1FFF7EEB97047000000080040BF
:1019F0007047704770470000F8B5016804460868F2
:101A0000CA684B6910F00F0F4FF0000559D003F072
:101A1000010602F49077374365D0C10705D0D105A0
:101A200003D5616C41F001016164410705D5D90717
:101A300003D0616C41F002016164810705D5D907CB
:101A400003D0616C41F004016164010707D502F025
:101A50002001314303D0616C41F008016164616C85
:101A600000293AD0800604D5900602D5204601F020
:101A70000BF920684069616CC0F38010090700D43D
:101A800060B3204601F0D9F820684069400621D5AE
:101A90002068143050E8001F21F0400140E8001297
:101AA000002AF5D1E06BA8B16D494163E06BFEF708
:101AB0008BFE002811D0E06B416B01B0BDE8F04017
:101AC000084783060FD593060DD52046BDE8F8409C
:101AD00001F0DAB82046FFF78DFFF8BD2046FFF78A
:101AE00089FF6564F8BD266B2023012E7CD1C606D4
:101AF0007AD5D60678D508684868009048694FF0CE
:101B00000206400640D5E16B086840680004000CFE
:101B1000E8D0A28D8242E5D9E085886920282DD0C1
:101B200020680C3050E8001F21F4807140E800125A
:101B3000002AF5D12068143050E8001F21F001017F
:101B400040E80012002AF5D12068143050E8001F48
:101B500021F0400140E80012002AF5D184F842301B
:101B6000256320680C3050E8001F21F0100140E888
:101B70000012002AF5D1E06BFEF703FE6663A08D2C
:101B8000E18D401A81B22AE0A08DE18D401A81B228
:101B9000E08D0028A6D00029A4D022680C3252E89B
:101BA000000F20F4907042E80007002FF5D1206864
:101BB000143050E8002F22F0010240E80027002FE7
:101BC000F5D184F84230256320680C3050E8002FAE
:101BD00022F0100240E80023002BF5D16663204676
:101BE000FFF707FFF8BDFFE705062BD5150629D53A
:101BF00094F841002128F5D1A068B0F5805F01D1AB
:101C00002069B0B1206A411C2162216800784860D7
:101C1000E08C401E0004000CE084E3D12068C16821
:101C200021F08001C1602068C16841F04001C160BD
:101C3000D8E7206A0088C0F308004860206A801C4A
:101C40002062E5E74006CDD55006CBD5CA682046D0
:101C500022F04002CA6084F8413000F031F9C1E757
:101C60002B2C000870B5040004D094F84100002526
:101C700010B106E0012070BD84F84050204600F00D
:101C800023F8242084F841002068C16821F4005121
:101C9000C160204601F05AF82068016921F49041A2
:101CA00001612068416921F02A0141612068C16811
:101CB00041F40051C1606564202084F8410084F83B
:101CC00042006563002070BD70B586B000240094AA
:101CD0000194029403942E4E03682E49022003229D
:101CE0002D4DB34226D18B6943F480438B618B69C0
:101CF00003F4804304938B6943F004038B61896987
:101D0000039201F0040104910102CDE9001069463B
:101D10002846FEF7B7FD2815CDE900046946284698
:101D20000294FEF7AFFD002205212520FFF7E2F81F
:101D3000252028E0194EB34227D1CB6943F4003364
:101D4000CB61CB6903F4003304938B6943F0040344
:101D50008B618969039201F0040104910421CDE9AA
:101D6000001069462846FEF78DFD0820CDE90004E5
:101D7000694628460294FEF785FD002205212620AB
:101D8000FFF7B8F82620FFF7A7F806B070BD0000EF
:101D900000380140001002400008014000440040AB
:101DA00090F84230202B01D00220704721B11AB1A7
:101DB0000023036301F026B80120704738B500689E
:101DC0001349144C884206D1207801F075F8BDE81B
:101DD000384001F095B81049884218D10D494FF0AC
:101DE000FF352B460122491C0C4800F019F8607899
:101DF0000D2808D10A208DF800002B4601226946E3
:101E0000064800F00DF8BDE8384001F089B838BD4B
:101E1000003801401C00002000440040A8010020C0
:101E20002DE9F843044690F84100984616460D46C1
:101E3000202802D00220BDE8F88385B17EB10020C1
:101E40006064212084F84100FEF71EFEA6848146CE
:101E5000E684A0682027B0F5805F02D003E001206F
:101E6000E9E7206910B12E4600250EE000260CE0BF
:101E70008021204600F0E1FFA8B9C6B116F8010B99
:101E800021684860E08C401EE084E08C4B464FF0B7
:101E90000002CDF800800028EAD14FF04001204632
:101EA00000F0CBFF40B184F841700320C3E735F860
:101EB000020BC0F30800E3E784F841700020BAE7A2
:101EC0007047FEE701684A69D24352050FD46FF4A8
:101ED00080624A61002140F8301F202242738173E2
:101EE000026942F004020261017301207047002080
:101EF00070470000F8B50446C06A1E460D461746F6
:101F0000082807D0012805D010F5803F02D0206BAB
:101F1000122804D12068016841F4807101601346E1
:101F200000224FF001112046009600F05DF840B10C
:101F300020680068C00502D54FF4007020640320BB
:101F4000F8BD2069B0F5804F0ED00620216800EA68
:101F5000D51040F0F000086133463A460B49204660
:101F600000F08AF878B902E005F0FE0000E0E8B27F
:101F700021680861054933463A46891F204600F02A
:101F80007BF80028DCD00120F8BD0000080001002B
:101F900070B516460D4604461EE02046FFF792FF38
:101FA00008B1012070BD681C16D0FEF76DFD801BC6
:101FB000A84200D885B920684069C04340070BD5C6
:101FC000002044F8300F20216173A073216941F093
:101FD000200121612073E4E720684069C043400785
:101FE000DBD4002070BD00002DE9F047984617466D
:101FF0000D460446C1F30746DDF820902AE000BFF5
:10200000B8F1FF3F26D0FEF73FFDA0EB09014145A7
:1020100002D8B8F1000F1DD12068012E16D08069BA
:1020200025EA00000004000C12D00020B84211D1B3
:10203000002044F8300F20216173A073216941F022
:102040002001216120730120BDE8F0874069E7E7A6
:102050000120EBE72068012E0AD0806925EA000004
:102060000004000C06D00020B842C9D00020EBE7E5
:102070004069F3E70120F7E72DE9F0479846164657
:102080000D4604464FF000094FF0200AC1F3074700
:1020900023E020684069C043400515D420680168EA
:1020A00041F40071016021686FF480604861C4F8F8
:1020B000309084F83DA084F83E90216C41F00401FA
:1020C000216484F83C9021E0701C06D0FEF7DCFC13
:1020D000A0EB0800B04203D816B1012F1FD021E0B9
:1020E0002068012F15D0806925EA00000004000C4B
:1020F00018D000BF44F8309F84F80DA084F80E90EB
:10210000216941F02001216184F80C900120BDE893
:10211000F087406925EA00000004000CEAD120683D
:10212000406901E02068806925EA00000004000C95
:10213000AFD1ECE770B516460D4604461EE02046CA
:10214000FFF7C0FE08B1012070BD681C16D0FEF775
:102150009BFC801BA84200D885B920684069C04319
:1021600000060BD5002044F8300F20216173A073C6
:10217000216941F0200121612073E4E72068406972
:10218000C0430006DBD4002070BD000008210148D8
:10219000FEF76DBC000C014010B50B4A00210B4846
:1021A00001F016FC0A4C084A00212061483A09480F
:1021B00001F00EFC044AA060243A0021064801F018
:1021C00007FCE06010BD00002C5100088D270008BE
:1021D0000800002071280008812800082DE9F0413E
:1021E00086B00024264800940194029403948169E7
:1021F00041F020018161816901F020010491816930
:1022000041F004018161816901F004010491816957
:1022100041F00801816180691A4F00F008000490C4
:10222000012230213846FEF72AFCDFF85C800122CB
:1022300091024046FEF723FC00224FF4004138464D
:10224000FEF71DFC002208214046FEF718FC48F26C
:10225000300001250226CDE90005CDE90246694698
:102260003846FEF70FFB4FF48160CDE90005CDE95C
:10227000024669464046FEF705FB06B0BDE8F08120
:102280000010024000080140000C01400D4810B54C
:102290000B4901600C49416000214FF4804281608C
:1022A000C0E9031241618161C1610162FEF7F2FB85
:1022B000002803D0BDE81040FEF761BA10BD000051
:1022C00000540040C4000020A086010010B58EB06C
:1022D00000240794089409940A940B941C216846DE
:1022E0000C94FDF796FF2448224901604721C0E97C
:1022F000011444F61F61C0E9031480218161FFF7D6
:10230000EDF808B1FEF73BFA4FF48050079007A9AB
:102310001948FFF751F908B1FEF731FA1648FFF7EF
:10232000E0FA08B1FEF72BFA0B940BA912480C94B3
:10233000FFF7A0F808B1FEF722FA6020009040F203
:10234000DC50CDE90104002269460B480494FFF7F4
:1023500062FA08B1FEF713FA042269460648FFF74D
:102360005AFA08B1FEF70BFA0348FFF72DFA0EB040
:1023700010BD000000040040180100200C4810B5FA
:102380000A4901604FF4E1314160002181600C2273
:10239000C160C0E904128161C161FFF763FC08B14B
:1023A000FEF7EDF9BDE8104000F0AABD003801408D
:1023B000600100200C4810B50A4901604FF4E1317A
:1023C0004160002181600C22C160C0E9041281617A
:1023D000C161FFF747FC08B1FEF7D1F9BDE8104035
:1023E00000F09EBD00440040A8010020FEE7FEE78B
:1023F000002000F001B8000030B4084C0022002199
:1024000004EBC2135854491C89B28029FAD3521CD8
:1024100092B2082AF3D330BC00F060B80C1B002045
:1024200010B54FF4FA70FEF71BFAAE2000F083FDF2
:10243000202000F080FD102000F07DFDB02000F095
:102440007AFD002000F077FD102000F074FDC02020
:1024500000F071FD402000F06EFD812000F06BFD6A
:10246000FF2000F068FDA02000F065FDA62000F030
:1024700062FDA82000F05FFD3F2000F05CFDA4207D
:1024800000F059FDD32000F056FD002000F053FD70
:10249000D52000F050FDF02000F04DFDD92000F0D7
:1024A0004AFD222000F047FDDA2000F044FD122012
:1024B00000F041FDDB2000F03EFD202000F03BFD60
:1024C0008D2000F038FD142000F035FDAF2000F025
:1024D00032FDBDE810400020FFF78EBF2DE9F0412E
:1024E0000E4F002404F1B000C0B200F024FD002023
:1024F00000F021FD102000F01EFD002507EBC416A2
:10250000705D00F01CFD6D1CADB2802DF8D3641C15
:10251000A4B2082CE6D3BDE8F08100000C1B00201B
:1025200010B520B1C02000F006FDA02003E0C820B7
:1025300000F001FDA120BDE8104000F0FCBC00004F
:1025400030B5802817D2002915DB402913DACB17C4
:1025500001EB537323F007040C1B0121064DA1402E
:10256000DB1005EBC3131844002A027801D00A439C
:1025700000E08A43027030BD0C1B00202DE9FF4FA4
:1025800081B00C468046802845D2002C43DB402C8D
:1025900041DA4FF0000B012B38D0022B3BD17AE00F
:1025A00020387DD4B8F17D0F03DAC8F17F01062908
:1025B00007DA083424B2C4F13F014FF000080829BB
:1025C0006EDB3A4900EB4000002501EB400908EBC7
:1025D000050000260FFA80F719F80500F04000F01A
:1025E0000102A01901B23846FFF7AAFF761CF6B225
:1025F000082EF1D36D1CEDB2062DE8D308F10600CC
:102600000FFA80F80BF1010000F0FF0B039810F8AF
:102610000B000028C4D143E0203841D4B8F17F0F2B
:1026200003DAC8F17F01082907DA103424B2C4F1B3
:102630003F014FF00008102932DB1D49002701EB54
:1026400000100090002608EB0600002506EBC70AE4
:102650000FFA80F9009810F80A00E84000F0010233
:10266000601900EBC70001B24846FFF769FF6D1C17
:10267000EDB2082DEED3761CF6B2082EE3D37F1C04
:10268000FFB2022FDED308F108000FFA80F80BF139
:10269000010000F0FF0B039810F80B000028BBD1DD
:1026A00005B0BDE8F04FFFF719BF00007A510008F0
:1026B000A25300082DE9F0412A490878AA284FD1F1
:1026C000487801284CD14879552849D18878CA786A
:1026D0001044AB300A79C0B2824241D191F9020074
:1026E00091F903402049087020490C7040F2DC55F4
:1026F000082801DD082004E06FF00701884200DAB5
:10270000084600EBC00101EB001105EB41004FF45E
:102710007A7780B240F26C723946FEF727F8144E91
:1027200030800A2C01DD0A2404E06FF009008442A5
:1027300000DA04466FF01800444305EB440080B211
:102740004FF4FA623946FEF711F8708031880120A3
:1027500000F010F87188BDE8F041022000F00AB8DE
:10276000BDE8F0811F000020090000200A000020C1
:102770000C000020044A0128126803D0022800D16E
:102780009163704751637047180100200A2001F0DF
:1027900071F8FDF7DBFF00F0D5F8344C21880120FB
:1027A000FFF7E8FF61880220FFF7E4FF40F6C41658
:1027B000B4F1040501F06CF8022001F055F801288D
:1027C0000FD12878C0F1010028700120FDF7C6FF65
:1027D000322001F0C1FE0020FDF7C0FF022001F011
:1027E0003DF8002001F040F8012818D1287834F88D
:1027F00010003230B042287805D804EB4000018840
:102800003231018001E024F81060287834F810108B
:102810002878401CFFF7AEFF002001F01FF80120D0
:1028200001F022F801281CD1287834F8100040F279
:102830002621884206D3287804EB400001883239EB
:10284000018004E029784FF4FA7024F81100287808
:1028500034F810102878401CFFF78CFF012000F09E
:10286000FDFF0A2001F078FEA4E700000C00002024
:102870004FF47A74FFF78AFC204601F06DFEF9E709
:1028800088B0FFF7CDFD0020FFF74AFEDFF87C801F
:102890004FF47A7AA8F10409B8F80040B8F8026059
:1028A00099F9015099F90270FFF7A2FD0021012367
:1028B00017A20846FFF762FE234619A2182101A8B5
:1028C00000F042FB012301AA10210020FFF756FE71
:1028D000334616A2182101A800F036FB012301AAF5
:1028E00020210020FFF74AFE2B4613A2182101A841
:1028F000009700F029FB012301AA30210020FFF7F7
:102900003DFE504601F028FEC6E700000C00002006
:10291000534552564F205354415455530000000024
:1029200053312050574D3A25750000005332205046
:10293000574D3A2575000000433A252B6420523A42
:10294000252B640010B500210448FEF7F9FFBDE80F
:10295000104004210148FEF7F3BF000018010020D9
:1029600010B54FF0E020006902F0FCF9012803D017
:10297000BDE8104001F02ABF10BD30B58FB028214E
:102980006846FDF746FC14210AA8FDF742FC012128
:102990000804CDE900100024029402250491CDE939
:1029A00007504FF4E01009906846FEF7D1FB08B1DC
:1029B00072B6FEE70F20CDE90A054FF48060CDE93D
:1029C0000C4002210AA80E94FEF7C6FA002801D096
:1029D00072B6FEE70FB030BD704700000148FEF749
:1029E0005ABE0000F0010020F0B50268194B1A4CE5
:1029F0001A4D4FF08047984205D0B84203D0A0420C
:102A000001D0A84203D122F070064A6832439842AE
:102A100005D0B84203D0A04201D0A84203D122F48D
:102A20004074CA6822434C6922F08002224302604B
:102A30008A68C2620A688262984201D109690163A8
:102A4000012141610169C90703D0016921F0010138
:102A50000161F0BD002C014000040040000800406E
:102A600010B501F01F030121046A99408C430462F0
:102A7000016A9A401143016210BD10B5846842EAB0
:102A8000032224F47F440A432243826010BD8268FB
:102A900022F070020A4342F0070181607047000093
:102AA00030B5036A026A22F0010202624268846958
:102AB00024F073050C682C4323F002058B682B432C
:102AC0000A4DA8420BD123F00805CB6822F44072CE
:102AD0002B434D6923F0040315438A692A4342605E
:102AE000846149684163036230BD0000002C0140ED
:102AF00030B5026A036A23F01003036243688469F5
:102B00000D6824F4E64444EA05248D6822F020028E
:102B100042EA05120B4DA8420ED1CD6822F0800288
:102B200042EA05124D6923F4406343EA85038D6947
:102B300022F0400243EA850343608461496881636F
:102B4000026230BD002C014030B5036A026A22F4F3
:102B5000807202624268C46923F4007324F0730532
:102B60000C682C438D6843EA05230C4DA8420ED116
:102B7000CD6823F4006343EA05234D6922F44052F3
:102B800042EA05128D6923F4806342EA051242602D
:102B9000C4614968C163036230BD0000002C01407C
:102BA00030B5046A026A22F4805202624268C36944
:102BB0000D6823F4E64343EA05238D6824F40054AA
:102BC00044EA0534064DA84204D14D6922F48042FE
:102BD00042EA85124260C36149680164046230BD03
:102BE000002C014010B5036A046A24F00104046259
:102BF000846924F0F00444EA021423F00A020A4330
:102C00008461026210BD10B5036A046A24F01004E6
:102C10000462846923F0A00324F4704444EA02327D
:102C200043EA01118261016210BD10B5406A0021C2
:102C3000C185C184FEF7DEFE10BD01680C3151E88C
:102C4000002F22F4907241E80023002BF5D1016897
:102C5000143151E8002F22F0010241E80023002B3B
:102C6000F5D1016B012909D101680C3151E8002F20
:102C700022F0100241E80023002BF5D1202180F83A
:102C8000421000210163704708B590F842102229D4
:102C900001D0022008BD82684FF480539A4201D1CE
:102CA000016921B1816A9A421BD04AB10AE00268E7
:102CB000816A5268C2F308020A80816A891C08E0AE
:102CC000026972B10268526802F07F020A70816A7A
:102CD000491C8162C18D491E0904090CC18503D0BC
:102CE0001BE002685268F1E70168CA6822F020021E
:102CF000CA600168CA6822F48072CA6001684A69C1
:102D000022F001024A61202180F842100021416333
:102D1000026B012A03D0FFF751F8002008BD0163C0
:102D200001680C3151E8002F22F0100241E8002325
:102D3000002BF5D101680A68D20602D50A684968F5
:102D40000091818DFEF755FEE7E7000070B504465F
:102D500000680169E26821F4405111430161216971
:102D6000A0680843616908432168CA6841F20C639E
:102D70009A430243CA6020684169A26921F4407104
:102D8000114341611E492068884202D1FEF7AAF929
:102D900001E0FEF797F900EBC00101EB001260685B
:102DA00064218000B2FBF0F3B3FBF1F36FF018067F
:102DB0007343B2FBF0F5B2FBF0F605EB830532236B
:102DC00003EB0515B5FBF1F5B6FBF1F605F0F005E3
:102DD00005EB0615B2FBF0F6B2FBF0F0B0FBF1F03C
:102DE0006FF01802504306EB800003EB0010B0FBBD
:102DF000F1F0216800F00F002844886070BD0000E9
:102E00000038014081628285C2850021416422210F
:102E100080F84210016921B10168CA6842F48072E9
:102E2000CA6001684A6942F001024A610068C168EB
:102E300041F02001C160002070472DE9F843984619
:102E400017460D460446089E24E0701C22D0FDF76C
:102E50001BFEA0EB0800B0421AD8CEB12068C168B2
:102E6000490717D5802D15D0402D13D00168C943CF
:102E700009070FD401680025406800902046FFF73D
:102E8000DCFE0820606484F840500120BDE8F8832F
:102E90000320FBE72068006835EA000004D000202A
:102EA000B842D2D00020F1E70120F9E70148FEF74F
:102EB000A3BD00006001002070B5104C0123E21C8E
:102EC000A17859B1002501290DD05054491CC8B230
:102ED000A070062806D3FFF7EDFB08E0AA2801D171
:102EE0001070A37070BD012803D0AA28F8D0A57077
:102EF00070BD50700220A07070BD00001C0000204A
:102F0000012202490248FEF74BBF00001C000020CE
:102F1000600100200148FEF76FBD0000A8010020FD
:102F2000012202490248FEF73BBF00001D000020BD
:102F3000A8010020FEE701460020FDF733BF01464F
:102F40004020FDF72FBF00000FB47CB50C0009AD89
:102F500001D0611E00E00021CDE90001064B6A4668
:102F60002946089800F0ECF8002C02D0009A0021C5
:102F700011707CBC5DF814FB473800080907090E86
:102F8000002804DB00F1E02080F80014704700F016
:102F90000F0000F1E02080F8141D704702E008C81F
:102FA000121F08C1002AFAD170477047002001E0C3
:102FB00001C1121F002AFBD1704700002DE9FF5FFD
:102FC00082B00021DDE90430020DDDF840B003439A
:102FD00018D044F61050A2F2FF3242431514119853
:102FE00001281FD0A5EB0B00401C5FEA000A4FF040
:102FF00000064E4FDFF83891B046504615D5CAF15D
:10300000000413E0119801244AA3012801D16FEABA
:103010000B010298119AC0E90031C0E9024206B0E2
:10302000BDE8F09FCBF10000DFE704460021404AF5
:10303000491842EB0450CDE9001012E0E00707D038
:1030400032463B4640464946FDF7DCF98046894614
:1030500032463B4610461946FDF7D4F906460F4660
:103060006410002CEAD1DDE90401DDE90023BAF1A6
:10307000000F06DAFDF7C6F942464B46FDF7C2F9E6
:1030800005E0FDF731FA42464B46FDF72DFA0446BE
:103090000E460022284BFDF7AFFA03D84FF0FF3061
:1030A000014607E00022254B20463146FDF703F993
:1030B000FDF789FA102409E0002C0ADB0A2200231C
:1030C000FDF7C8F8039B30321A55641E50EA01021E
:1030D000F2D1641C039AC4F111031444119A012A19
:1030E00003D0012208430DD10AE0084304D0002098
:1030F0004FF0110B119072E7A3EB0B056D1E0DE065
:103100005B4504DD4FF0000205F1010504E003DA40
:103110004FF00002A5F10105002AECD002981199A8
:10312000C0E90231C0E9004579E700000000144021
:103130000000F03F300000000000F0430000E03FDE
:103140002DE9FF4F95B09A46884606460025EEE1E8
:10315000252877D100242746F94A0121039400E06D
:10316000044316F8013F203B01FA03F01042F7D167
:1031700030782A2811D06FF02F033078A0F1300278
:10318000092A16D8039A44F0020402EB820203EBE8
:1031900042021044761C0390EFE758F8042B039288
:1031A000002A03DA504244F40054039044F002042D
:1031B000761C30782E2816D116F8010F44F004043E
:1031C0002A280DD06FF02F023078A0F13003092BA0
:1031D00009D807EB870302EB4303C718761CF3E714
:1031E00058F8047B761C30786C280FD006DC4C280D
:1031F00017D068280DD06A2814D104E0742810D0A4
:103200007A280FD10DE044F400140AE044F480144D
:1032100001E044F440147278824202D104F5801433
:10322000761C761C307866280BD013DC582877D0B3
:1032300009DC002875D04528F6D04628F4D0472868
:103240001AD193E118E0632835D0642879D0652835
:1032500012D18BE1702873D008DC6728F1D069287F
:103260006FD06E280DD06F2806D1ACE073282CD01B
:10327000752874D0782853D05246179990476D1C02
:1032800054E1C4F30250022809D003280DD0D8F825
:10329000001004280DD00D6008F1040846E1D8F8AC
:1032A0000010EA17C1E90052F6E7D8F800100D80C7
:1032B000F2E70D70F0E718F8041B8DF800100020FD
:1032C0008DF80100EB46012003E058F804BB4FF0F5
:1032D000FF3061074FF0000102D40DE009F1010158
:1032E0008946B9420FDA8145F8DB1BF8091000293D
:1032F000F4D108E009F1010189468142FADB1BF8AB
:1033000009100029F6D103985346A0EB090721467E
:103310003846179A00F080FA284400EB090507E0C8
:1033200044E008E10DE01BF8010B52461799904765
:10333000B9F10109F7D2534621463846179AF2E00F
:1033400039E00A21C4F302524FF0000B0091022A27
:1033500006D058F8040BC117032A09D00AE023E06D
:1033600008F1070020F00702F2E80201904605E0AC
:1033700000B2C117042A01D140B2C117002906DAF0
:103380000A460021404261EB02012D2202E02205A3
:1033900004D52B228DF80420012203E0E20701D09E
:1033A0002022F7E7914657E00A2100E010214FF074
:1033B000000B00910BE010214FF0000B44F00404CF
:1033C0000827009103E008204FF0000B0090C4F3A1
:1033D0000252022A05D058F8040B0021032A08D013
:1033E00008E008F1070020F00702F2E80201904629
:1033F00003E080B2042A00D1C0B24FF000092207D6
:103400002AD53278702A07D0DDF800C08CF0100C75
:103410005CEA0B0C05D00EE040228DF8042001225E
:1034200008E050EA010306D030238DF804308DF80F
:10343000052002229146009B83F0080353EA0B0308
:103440000AD150EA010201D1620705D530228DF878
:1034500004204FF001097F1E3278582A04D039A287
:103460000C920CAA02920BE03BA2F9E75B46009A91
:10347000FCF7F0FE0C9B9B5C029A521E02921370AA
:1034800050EA0102F2D1029804A9081A00F1200BB7
:10349000600702D524F4803400E001275F4502DD97
:1034A000A7EB0B0000E0002000EB0B01009003985D
:1034B0004944401A0390E00306D453462146179A24
:1034C000039800F0A9F90544002706E001A8524638
:1034D000C05D179990476D1C7F1C4F45F6DBE003DC
:1034E0000CD553462146179A039800F095F90544E8
:1034F00004E030205246179990476D1C0099481EF1
:1035000000900029F5DC08E0029802995246007804
:10351000491C0291179990476D1CBBF10001ABF15A
:10352000010BF1DC5BE100F065F90544761C3078B5
:1035300000287FF40DAE19B02846BDE8F08F0000DA
:103540000928010030313233343536373839616279
:10355000636465660000000030313233343536373D
:10356000383941424344454600000000600700D41A
:10357000062708F1070020F00700F0E80223804644
:1035800003F0004C5FEA0C0001D097A009E0200591
:1035900001D596A005E0E00701D095A001E0AFF2CB
:1035A0004C001390307823F0004365280CD006DCE3
:1035B000452809D046281DD047287FD13BE0662802
:1035C00018D067287AD136E00021112F01DB1120B5
:1035D00000E0781CCDE9000104A90CA8FFF7EEFC7F
:1035E000DDE90D010C9A4FF0000B07F10109109273
:1035F00000914EE04FF000400097CDE9011004A982
:103600000CA8FFF7DBFCDDE90D020C9B0F994FF0D6
:10361000000B91461093009211B9791C00EB01093F
:10362000B7EB090003D4C0F1FF3B07F10109A9EB97
:103630000700019042E0012F00DA01270021112F3D
:1036400001DD112000E03846CDE9000104A90CA8F5
:10365000FFF7B4FCDDE90D010C9A00914FF0000B6F
:10366000B946109221070FD4009A4A4503DA9146D1
:1036700001E0A9F10109B9F1010F05DD109AA9F1E5
:103680000101515C3029F4D0B84202DA10F1040F84
:1036900003DA0121CDE9011010E0002803DC8344A6
:1036A000A9EB000102E0411C494500DD8946A0EB81
:1036B0000B00401C01904FF000400290200705D401
:1036C0000198484502DB4FF0FF30019000208DF853
:1036D0004B0002980DF14B07B0F1004F25D00220AE
:1036E0000C902B200D90029800280CDA404202909A
:1036F0002D200D9007E00A210298FCF795FD30314E
:10370000029007F8011D0C99481E0C900029F2DC6C
:1037100002980028EFD1791E0D980870307800F0DB
:10372000200040F0450007F8020D11A8C01BC01D85
:1037300002901398007800B1012000EB0901019874
:1037400001EBE071029801440398401A401E039077
:10375000E00306D453462146179A039800F05CF81C
:1037600005441398007818B15246179990476D1C7C
:10377000E00323D553462146179A039800F04CF8EE
:1037800005441BE0BBF1000F07DB0098584504DD42
:103790001098179910F80B0001E017993020524645
:1037A000904701980BF1010B401E05F101050190B6
:1037B00004D12E205246179990476D1CB9F1000193
:1037C000A9F10109DEDC05E017F8010B5246179953
:1037D00090476D1C0299481E02900029F4DC534664
:1037E0002146179A03989EE62D0000002B0000004A
:1037F000200000002DE9F041044600251E46174632
:10380000880404D405E039462020B0476D1C641EAE
:10381000F9D52846BDE8F0812DE9F04104460025A0
:103820001E469046C80301D5302700E020278804B3
:1038300004D505E041463846B0476D1C641EF9D5F5
:103840002846BDE8F0814A68002A06D00A68531C61
:103850000B6010704868401E48607047014A0021A4
:1038600011547047000000200149085C70470000B7
:10387000000000200021054B0A465A54491C89B219
:103880000329FAD301494860704700000000002076
:103890002DE9F0471E4EDFF87CA000241E4D06F1F6
:1038A0000807D146A04600BF36F8141057F8240088
:1038B000FDF7D8F8012810D055F824004FF47A729B
:1038C000401C45F82400DAF80410B2FBF1F1814203
:1038D00018D8022109F8041014E019F8041002297C
:1038E0000CD0DAF804100A22B2FBF1F155F82420CA
:1038F000914203D8012109F8041001E009F804807D
:1039000045F82480641CA4B2032CCDD3BDE8F08715
:10391000D050000800000020B80000201FB5FDF7BF
:1039200059FAFFF72AF8FEF759FCFEF7AFFCFEF74D
:1039300025FDFEF73FFDFEF7C9FC09A30FCB8DE87F
:103940000F004FF0FF330E2269460948FEF768FA70
:1039500000F010F8FEF720FC00F01EF8FEE7000073
:103960005553415254322072656164790D0A00004A
:10397000A8010020EFF3058010B16FF0050070473B
:103980000448016811B14FF0FF3070470121016018
:10399000002070478800002010B5EFF3058010B1BB
:1039A0006FF0050010BD08480168012902D04FF0F2
:1039B000FF3010BD054A002182F8141D022101606C
:1039C00000F032FE002010BD880000200BE000E077
:1039D0002DE9FF414FEA01034FF00005EFF30581A8
:1039E000039549BB40B38027182100244AB31668C9
:1039F00006B1344696691EB13146761E382E02D283
:103A00001679F60703D0002004B0BDE8F0815669AE
:103A100006B1B708D2F808C0BCF1000F0DD0D568C8
:103A20005C2D18D312693AB136B18DE806103A46CA
:103A3000214601F06CF903900DE0D6685EB9126979
:103A40004AB903AACDE90012BAB2214601F032F90F
:103A5000012800D003950398D6E700002DE9F04136
:103A6000134C0F460546E6682068001D00F040FC38
:103A7000681C07D137B12168BDE8F0410D48091D28
:103A800000F086BC20683544B5424560216805D207
:103A9000A06BBDE8F041091D00F062BC606B091D20
:103AA00000F05EFCA06A854200D2A562BDE8F0810C
:103AB00038000020280700202DE9F041054600F0DD
:103AC00073FC2D4CA068401CA06020682B4F10B1E7
:103AD000606930B32BE02560A068012827D100265B
:103AE00006EB860007EB800000F02CFC761C382EDD
:103AF000F6D3234800F026FC2148143000F022FCC5
:103B00001F48283000F01EFC1D483C3000F01AFC15
:103B10001B48503000F016FC194860631430A06355
:103B200005E02068E96AC06A884200D82560606ABA
:103B3000401C60626864E86A2169884200D920619B
:103B400000EB800007EB8000291D00F021FC00F055
:103B50004BFC606900280CD02068E96AC06A884282
:103B600007D208494FF080500860BFF34F8FBFF372
:103B70006F8FBDE8F081000038000020780200203F
:103B8000D806002004ED00E038B500F00DFC104C24
:103B90002068C8B90F4800F0D5FB0E48143000F07B
:103BA000D1FB0C48E060143020610A4B0020F03B50
:103BB000009003F1500210210A2000F01DFE206049
:103BC00010B105A100F092FCBDE8384000F00CBC3B
:103BD000740000202C080020546D72510000000079
:103BE00030B4026C0B46002A0BD0C1681144C1608E
:103BF0008468A14201D30168C16030BC1846FCF75B
:103C0000EFBA30BC70472DE9F041856B174604468A
:103C10000026026C82B1C7B1E068FCF7E1FAE16806
:103C2000206C091AE1602268914202D2A168081A48
:103C3000E060022F16D017E02068A8B9A06801F054
:103C400009F906460020A0600EE06068FCF7C8FA9B
:103C5000216C606808446060A168884204D32068D1
:103C6000606001E005B16D1E6D1CA5633046BDE8C6
:103C7000F08110B5044690F8590058B101280CD0D5
:103C800002280FD0502080F31188BFF34F8FBFF36D
:103C90006F8FFEE7206B00F0BBFB2046BDE81040B5
:103CA00000F0B6BB10BD000010484FF44061420761
:103CB00006D0C01D0D4920F00700411AC1F5406132
:103CC0000B4A00230144C2E900030839183A21F0E5
:103CD000070111604B600B600B1AC0E90013936081
:103CE0004FF0004053605061704700000C0F0020FF
:103CF000A4000020144E154CA6F29C474FF08058AB
:103D0000DFF84C9012E000BF00F04EFBF068C56891
:103D1000281D00F0EDFAA068401EA0606068401EFB
:103D2000606000F061FB2846FFF7A3FF6068002891
:103D3000EAD138680128F9D9C9F80080BFF34F8F5C
:103D4000BFF36F8FF2E70000140700203800002057
:103D500004ED00E070B51D46049C51B1C4F800208C
:103D6000C4E90F010121204600F07AFD84F84C508F
:103D700070BD2460F4E700002DE9F05F8846DDE9BE
:103D80000B941546834691009A460A9EA522206B05
:103D9000FCF738FA6FF00301206B01EB8501084452
:103DA00020F00707780707D0502080F31188BFF371
:103DB0004F8FBFF36F8FFEE70025B8F1000F0FD0D4
:103DC0005FF00000221818F8001082F8341018F87C
:103DD000001011B1401C1028F4D384F8435001E0C6
:103DE00084F83450382E00D33726E662C4E91365D0
:103DF000201D00F0B2FA04F1180000F0AEFA2461C0
:103E0000C6F138006462A061656584F85850524676
:103E10005946384600F05AFA2060B9F1000F01D037
:103E2000C9F80040BDE8F09F30B5114900E01146E7
:103E30000A688242FBD34B685C18844203D1406815
:103E400018444860084643681C18944209D1084C3D
:103E5000183C2468A24209D052681A4442600A6899
:103E600012680260814200D0086030BD0460F9E74A
:103E7000A400002070B5002441600B4D0061914208
:103E800006D8D11A8269914206D2011D286907E03D
:103E90009A4203D2994201D3012403E0011DE8684C
:103EA00000F05EFA204670BD7400002010B5044694
:103EB00000F07AFAA06B28B15FF0000400F094FAE9
:103EC000204610BD0124F9E730B589B03C4D6EE0C5
:103ED0000498002806DADDE90601059A904704985F
:103EE000002864DB069C606910B1201D00F000FA18
:103EF00003A800F0D7F8024604980A2857D2DFE852
:103F000000F00505052D334A05052D3394F82800EA
:103F100040F0010084F828000599A069059B014440
:103F20002046FFF7A7FF68B3216A2046884794F828
:103F3000280040073BD5002000900598A169002388
:103F400042181946204601F08FF8D8B9502080F366
:103F50001188BFF34F8FBFF36F8FFEE714F8280F60
:103F600020F00100207022E094F8280040F00100C9
:103F700084F828000598A06128B1811813462046CE
:103F8000FFF778FF13E0502080F31188BFF34F8FC5
:103F9000BFF36F8FFEE794F82800810703D4204613
:103FA00000F036FA03E020F0010084F82800002237
:103FB00004A9286800F0A8FD002889D109B030BD07
:103FC000740000202DE9FC410F46054600F070FB0F
:103FD00001A800F067F80446019818B100F0B2FF9C
:103FE000BDE8FC81254EAFB130690068D0B3002731
:103FF000291B3A46306800F08DFA00F0A3FF002834
:10400000EED11F494FF080500860BFF34F8FBFF3D0
:104010006F8FE5E7A542EBD800F094FFF0682746E4
:10402000C068C468201D00F063F994F828004107B7
:1040300019D5A0692B4641193A462046FFF71AFFC9
:10404000A8B100200346014600902A46204601F010
:104050000BF860B9502080F31188BFF34F8FBFF386
:104060006F8FFEE707E020F0010084F82800216A46
:1040700020468847B4E70127BAE700007400002013
:1040800004ED00E00648416B096829B1416BC9683D
:10409000C9684968816270474FF0FF31FAE7000054
:1040A0003800002070B5054600F06AFE064E044652
:1040B000B068844203D200F009F8012000E000203B
:1040C00028602046B46070BD74000020F8B5194D1A
:1040D00020E0C068C4680668201D00F009F9216A64
:1040E0002046884794F82800400713D5A06930443B
:1040F000B04206D924616060211DE86800F030F903
:1041000008E000200346014600903246204600F0B9
:10411000ABFF38B1E86801680029DAD12969C5E93F
:104120000310F8BD502080F31188BFF34F8FBFF309
:104130006F8FFEE77400002008484068401C4FF075
:10414000500080F3118804D0BFF34F8FBFF36F8FFF
:10415000FEE7BFF34F8FBFF36F8FFEE7AC00002089
:10416000074CE068016841B1C0680021D0F8000048
:10417000FFF728FFFFF7A8FEF3E701210020F7E78C
:10418000740000202DE9F041044600F00DF994F987
:10419000455004F1240609E0606A48B1304600F059
:1041A00099FE08B100F006FA6D1E6DB2002DF3DC29
:1041B0004FF0FF3684F8456000F016F900F0F4F88F
:1041C00094F9445004F1100709E0206948B13846D9
:1041D00000F080FE08B100F0EDF96D1E6DB2002D0B
:1041E000F3DC84F84460BDE8F04100F0FDB8000065
:1041F0002DE9F0410546002700F05AFA324E3068AA
:1042000008B9FFF751FD706905424ED1C5B30835B5
:1042100068070ED005F00700C0F1080005446807E4
:1042200007D0502080F31188BFF34F8FBFF36F8FFB
:10423000FEE72DB37068854237D823481830014611
:104240000C6801E020460C466168A94202D2216850
:104250000029F7D131688C4227D0076821680160B6
:1042600060680837411B10290FD96019420708D030
:10427000502080F31188BFF34F8FBFF36F8FFEE79D
:1042800013E041606560FFF7CFFD61687068401A18
:104290007060B268904200D2B06070690143002043
:1042A000C4E90001F068401CF06000F04BFE7807A4
:1042B00007D0502080F31188BFF34F8FBFF36F8F6B
:1042C000FEE73846BDE8F0818C00002010B5031FE2
:1042D0004FF080741C601B1F21F001011960191F31
:1042E000024B0B60143940380A6010BD3941000898
:1042F000D0E9013201699A60D0E901235A604A6825
:10430000824201D182684A60002202610868401E30
:104310000860086870470000034B036003F15C000D
:10432000086080201060704754080020044B036030
:1043300003F15C0008604FF480701060704700006B
:10434000B00A002000F108014FF0FF32C0E901126D
:10435000C160016100210160704700210161704767
:1043600030B50B685A1C02D000F1080202E0026965
:1043700004E02246546825689D42FAD953684B6090
:1043800099608A60516008610168491C016030BD14
:1043900042684A6093688B609368596091600861D5
:1043A0000168491C01607047502080F31188BFF3F9
:1043B0004F8FBFF36F8F0A494868401C486001283F
:1043C0000CD10848006810F0FF0F07D0502080F390
:1043D0001188BFF34F8FBFF36F8FFEE77047000068
:1043E000AC00002004ED00E00849486828B1401EF8
:1043F000486001D180F311887047502080F3118804
:10440000BFF34F8FBFF36F8FFEE70000AC000020BB
:1044100070B500282AD0164DA0F1080460686969BB
:10442000084207D1502080F31188BFF34F8FBFF3AC
:104430006F8FFEE722683AB1502080F31188BFF3F6
:104440004F8FBFF36F8FFEE78843606000F030F955
:1044500060686968084468602046FFF7E5FC2869E1
:10446000401C2861BDE8704000F06CBD70BD0000CC
:104470008C0000204FF0E02000210161816105499E
:104480004FF47A720968B1FBF2F1491E41610721CC
:10449000016170473400002010B5FBF77BFE114925
:1044A00010280ED300F1E02090F8F0030A78904233
:1044B00007D2502080F31188BFF34F8FBFF36F8F67
:1044C000FEE709480068896800F4E060884207D97F
:1044D000502080F31188BFF34F8FBFF36F8FFEE73B
:1044E00010BD0000AC0000200CED00E010B5084B42
:1044F000002200BF53F832401CB1521C082AF9D3E5
:1045000010BD43F8321003EBC201486010BD00003B
:104510003802002070B515460E460446FFF744FFEA
:1045200094F944100020491C01D184F8440094F906
:104530004510491C01D184F84500FFF755FFA06BD9
:1045400028B92A46314604F1240000F051F82046EB
:10455000BDE87040FFF716BE10B5020014D00F483A
:10456000006B38B1502080F31188BFF34F8FBFF339
:104570006F8FFEE700F09CF800211046FFF76EFAFF
:1045800000F0E0FC002807D105494FF0805008609A
:10459000BFF34F8FBFF36F8F10BD000038000020B6
:1045A00004ED00E002490A6A0260C9684160704790
:1045B0003800002001490120C86170473800002000
:1045C00010B50C4650B1094909681831FFF7C8FE0B
:1045D0002046BDE810400121FFF740BA502080F38B
:1045E0001188BFF34F8FBFF36F8FFEE738000020B5
:1045F00070B514460D4668B10A4909681831FFF7CD
:10460000C7FE0CB14FF0FF3521462846BDE870408B
:10461000FFF724BA502080F31188BFF34F8FBFF308
:104620006F8FFEE73800002030B587B00024039478
:1046300005AA04A903A80494FFF76EFEDDE90301AF
:104640000094CDE90110002315A11748059A00F048
:104650005EFB164D0028E8621FD000F0D5FC012853
:1046600009D0401C19D1502080F31188BFF34F8F1F
:10467000BFF36F8FFEE7502080F31188BFF34F8F99
:10468000BFF36F8F4FF0FF30A86201206861EC60CC
:1046900007B0BDE8304000F045B807B030BD0000BD
:1046A00049444C4500000000F53C0008380000205B
:1046B0000248016B491C016370470000380000206C
:1046C000164810B5016B11B10121C16110BD002167
:1046D000C1610169124A01E0B9B1491E01EB8103D0
:1046E00052F82330002BF7D001EB810302EB830259
:1046F00002F1080453685B685360A34201D15B6810
:104700005360DA680260016110BD502080F31188A7
:10471000BFF34F8FBFF36F8FFEE70000380000201C
:10472000780200201CB5264908780190FF20087007
:1047300008788DF800009DF800009DF8002000F03A
:10474000F000904207D0502080F31188BFF34F8FC4
:10475000BFF36F8FFEE79DF800001A4C00F0500089
:1047600020700720A06005E09DF8002052008DF821
:104770000020401E9DF800201206F5D4A0600328FA
:1047800007D0502080F31188BFF34F8FBFF36F8F96
:10479000FEE74FF44070A060019808700A48016875
:1047A00041F470010160016841F070410160FFF760
:1047B00061FE00206060FBF7B7FC00201CBD00001C
:1047C00000E400E0AC00002020ED00E010B5502037
:1047D00080F31188BFF34F8FBFF36F8F00F0D6FACD
:1047E00018B104494FF080500860002080F3118810
:1047F00010BD000004ED00E038B5049D18B153B1C0
:10480000CAB181B120E0502080F31188BFF34F8FEF
:10481000BFF36F8FFEE7502080F31188BFF34F8FF7
:10482000BFF36F8FFEE7502080F31188BFF34F8FE7
:10483000BFF36F8FFEE739B1502080F31188BFF3CB
:104840004F8FBFF36F8FFEE750241C46012384F87F
:1048500046302B460094FFF77DFA204638BD000015
:1048600070B50D46040025D0FFF79EFDD4E90F205A
:10487000216802FB0011A1600021A1632168616031
:104880000A46D4E90F01401E00FB0121E1602146E8
:104890004FF0FF3001F8440F487004F110008DB163
:1048A000FFF750FD04F12400FFF74CFDFFF79CFDDE
:1048B000012070BD502080F31188BFF34F8FBFF3EC
:1048C0006F8FFEE721690029F0D000F003FB00287C
:1048D000ECD004494FF080500860BFF34F8FBFF316
:1048E0006F8FE3E704ED00E02DE9FF4782B01D463E
:1048F0008A464FF00008040003D0BAF1000F08D038
:1049000011E0502080F31188BFF34F8FBFF36F8FFA
:10491000FEE7206C38B1502080F31188BFF34F8F31
:10492000BFF36F8FFEE7022D0AD1E06B012807D09D
:10493000502080F31188BFF34F8FBFF36F8FFEE7D6
:1049400000F010FA3F4F4FF000094FF0805648B981
:10495000049838B1502080F31188BFF34F8FBFF314
:104960006F8FFEE7FFF720FDA06BE16B884207D356
:10497000022D05D00498D0B1B8F1000F1AD01EE076
:104980002A4651462046FFF73EF9616A19B104F103
:10499000240000F09FFA20B13E60BFF34F8FBFF3B9
:1049A0006F8FFFF721FD012006B0BDE8F087FFF70C
:1049B0001BFD22E06846FFF7F5FD4FF00108FFF709
:1049C00013FDFFF775FEFFF7EFFC94F94400401C60
:1049D00001D184F8449094F94500401C01D184F839
:1049E0004590FFF701FD04A9684600F029F930B1B0
:1049F0002046FFF7C7FB00F0A5FA0020D4E7FFF739
:104A0000D3FCA06BE16B884213D1FFF7EDFC04F1FE
:104A100010000499FFF7D4FD2046FFF7B3FB00F028
:104A200091FA00289ED13E60BFF34F8FBFF36F8F86
:104A300098E7FFF7D9FC2046FFF7A4FB00F082FAC5
:104A400090E7000004ED00E02DE9F0471F46904696
:104A50008946040003D0B9F1000F08D011E05020BE
:104A600080F31188BFF34F8FBFF36F8FFEE7206C89
:104A700038B1502080F31188BFF34F8FBFF36F8F91
:104A8000FEE7022F0AD1E06B012807D0502080F307
:104A90001188BFF34F8FBFF36F8FFEE7FFF7FCFC6A
:104AA0005020EFF3118680F31188BFF34F8FBFF3CF
:104AB0006F8FA06BE16B884206D3022F04D00020D9
:104AC00086F31188BDE8F08794F94550A06B3A460B
:104AD00049462046FFF797F8681C04D06D1C84F8FF
:104AE00045500120ECE7606A0028FAD004F1240068
:104AF00000F0F0F90028F4D0B8F1000FF1D0012156
:104B0000C8F80010EDE700002DE9F747002683B054
:104B10008A46040003D0BAF1000F08D011E05020FB
:104B200080F31188BFF34F8FBFF36F8FFEE7206CC8
:104B300038B1502080F31188BFF34F8FBFF36F8FD0
:104B4000FEE700F00FF9DFF8F4804FF000094FF0B6
:104B5000805748B9059838B1502080F31188BFF3C9
:104B60004F8FBFF36F8FFEE7FFF71EFCA56BC5B13C
:104B700051462046FFF734F86D1EA563206950B1F9
:104B800004F1100000F0A6F928B1C8F80070BFF3D6
:104B90004F8FBFF36F8FFFF727FC012006B0BDE8F2
:104BA000F087059808B11EB106E0FFF71DFC27E06D
:104BB0006846FFF7F7FC0126FFF716FCFFF778FDC4
:104BC000FFF7F2FB94F94400401C01D184F84490B3
:104BD00094F94500401C01D184F84590FFF704FC8E
:104BE00005A9684600F02CF8002820460AD0FFF7F7
:104BF000C9FA00F0A7F92046FFF758F90028B3D00A
:104C00000020CBE7FFF752F990B104F12400059999
:104C1000FFF7D6FC2046FFF7B5FA00F093F900281D
:104C2000A2D1C8F80070BFF34F8FBFF36F8F9BE71F
:104C30002046FFF7A7FA00F085F995E704ED00E0BC
:104C40002DE9F0410C46050011D0C4B1FFF7ACFBD3
:104C5000174BDA686E682068911B471C17D02F68C5
:104C60001B6A9F4219D0964217D8012410E05020A9
:104C700080F31188BFF34F8FBFF36F8FFEE7502093
:104C800080F31188BFF34F8FBFF36F8FFEE70024CF
:104C9000FFF7AAFB2046BDE8F081884205D9401AFB
:104CA00020602846FFF77EFCF1E700202060DCE76B
:104CB000380000202DE9FF5F8346DDE90E87994625
:104CC00016468A469000FFF793FA05001CD05C2038
:104CD000FFF78EFA040014D00020256384F85900F1
:104CE000CDE90240CDE900874B4632465146584651
:104CF000FFF742F82046FEF7DFFE012004B0BDE8D2
:104D0000F09F2846FFF784FB4FF0FF30F6E7F0B541
:104D100085B0DDE90B640A9DA6B1DCB15C27009784
:104D20002663022684F85960002604AFCDE90246C6
:104D3000CDE90057FFF720F82046FEF7BDFE0498A6
:104D400005B0F0BD502080F31188BFF34F8FBFF343
:104D50006F8FFEE7502080F31188BFF34F8FBFF3B2
:104D60006F8FFEE70548416919B1006B18B100204B
:104D70007047012070470220704700003800002073
:104D80000148C06870470000380000202DE9F0415C
:104D90002E4C0027206B28B1A069401CA06138462A
:104DA000BDE8F081E668761CE66013D1606B0068B0
:104DB00038B1502080F31188BFF34F8FBFF36F8F4E
:104DC000FEE7606BA16B6163A063206A401C2062F8
:104DD000FFF758F9A06ADFF87880864209D3606B44
:104DE0000068A0B1606BC068C5686868864211D26F
:104DF000A0622068C06A00EB800158F821000128F9
:104E000000D90127E0690028C9D00127C7E74FF082
:104E1000FF30EDE7281DFFF76BFAA86A18B105F11E
:104E20001800FFF765FAE86A2169884200D9206115
:104E300000EB800108EB8100291DFFF7A9FAE86A61
:104E40002168C96A8842CAD30127C8E73800002010
:104E50007802002070B504004FF0000133D01B4DE4
:104E60002868844207D0502080F31188BFF34F8F09
:104E7000BFF36F8FFEE7206D38B1401E2065E36CF5
:104E8000E26A9A421FD040B11DE0502080F31188A1
:104E9000BFF34F8FBFF36F8FFEE7201DFFF728FA98
:104EA000E06CE062C0F13800A061E06A29698842E4
:104EB00000D92861064900EB800001EB8000211D2C
:104EC000FFF766FA0121084670BD00003800002097
:104ED0007802002070B5C068C46854B104F11800AD
:104EE0000646FFF705FA144D286B50B131461348BA
:104EF00015E0502080F31188BFF34F8FBFF36F8F01
:104F0000FEE7201DFFF7F4F9E06A2969884200D91D
:104F100028610B4900EB800001EB8000211DFFF7A9
:104F200037FAE06A2968C96A884202D90120E86133
:104F300070BD002070BD0000380000200007002078
:104F4000780200202DE9F0472C4D00242746286BDD
:104F500038B1FFF729FA286B401E2863286B40B14F
:104F600046E0502080F31188BFF34F8FBFF36F8F5F
:104F7000FEE7A968224E0120D1B3A6F591698046CB
:104F80003068E0B1F068C46804F11800FFF7B0F9C8
:104F9000201DFFF7ADF9E06A2969884200D9286130
:104FA00000EB800109EB8100211DFFF7F1F9E06AB8
:104FB0002968C96A8842E3D3C5F81C80E0E70CB1D0
:104FC000FFF760F8AC694CB14FEA0806FFF7DEFE68
:104FD00000B1EE61641EF9D10020A861E86938B122
:104FE0000849012738070860BFF34F8FBFF36F8F61
:104FF000FFF7FAF93846BDE8F087000038000020D6
:105000000007002004ED00E010B586B0FEF7BCFDFF
:10501000114C2068B8B100200390049005AA04A99F
:1050200003A8FFF783F9DDE9032102208DE80700DB
:1050300000230AA10B48059AFFF769FE606010B1D2
:1050400006B0012010BD502080F31188BFF34F8FB0
:10505000BFF36F8FFEE7000074000020546D7220D4
:1050600053766300614100082DE9FF411E46134657
:1050700002000A9D4FF0000016D0144C2768002F44
:105080000FD0CDE900130292062917DAFFF76AFE66
:1050900002284FF000030FD0002269462068FFF776
:1050A00023FC04B0BDE8F081502080F31188BFF3E9
:1050B0004F8FBFF36F8FFEE72A46EEE7002332469D
:1050C00069463846FFF7C0FCEBE70000740000209B
:1050D000100020000004000000080140000801400A
:1050E000000C0140D859000800000000000000003A
:1050F00000000000000000000002000008000000A6
:105100000000000000000000F4590008000000004A
:10511000000000000000000000000000000400008B
:10512000080000000000000000000000E85900082E
:10513000000000000000000000000000000000006F
:105140000002000018000000000000000000000045
:10515000010202030405060708090A0B0C0D0E0FD5
:105160001010000000000000000001020304060708
:105170000809000000000102030400000000000014
:105180000000002F000000000700070000147F143B
:105190007F1400242A7F2A12006264081323003639
:1051A0004955225000000503000000001C22410068
:1051B000000041221C000014083E08140008083EAC
:1051C0000808000000A060000008080808080000A7
:1051D00060600000002010080402003E5149453E76
:1051E0000000427F40000042615149460021414594
:1051F0004B31001814127F10002745454539003CFB
:105200004A494930000171090503003649494936C8
:1052100000064949291E00003636000000005636B7
:10522000000000081422410000141414141400009B
:105230004122140800020151090600324959513E29
:10524000007C1211127C007F49494936003E4141E1
:105250004122007F4141221C007F49494941007F92
:1052600009090901003E4149497A007F0808087F81
:105270000000417F4100002040413F01007F0814B1
:105280002241007F40404040007F020C027F007FAF
:105290000408107F003E4141413E007F0909090694
:1052A000003E4151215E007F0919294600464949C7
:1052B00049310001017F0101003F4040403F001F94
:1052C0002040201F003F4038403F00631408146313
:1052D00000070870080700615149454300007F41FD
:1052E000410000552A552A55000041417F00000425
:1052F000020102040040404040400000010204005E
:10530000002054545478007F4844443800384444C2
:10531000442000384444487F00385454541800084E
:105320007E0901020018A4A4A47C007F080404786C
:105330000000447D4000004080847D00007F1028F4
:1053400044000000417F4000007C04180478007C89
:105350000804047800384444443800FC2424241809
:105360000018242418FC007C080404080048545445
:10537000542000043F444020003C4040207C001C5E
:105380002040201C003C4030403C00442810284471
:10539000001CA0A0A07C004464544C4414141414B9
:1053A00014140000000000000000000000000000D5
:1053B0000000000000F80000000000000033300092
:1053C000000000100C06100C060000000000000099
:1053D000000040C07840C0784000043F04043F040F
:1053E0000400007088FC08300000001820FF211E17
:1053F0000000F008F000E018000000211C031E214E
:105400001E0000F00888700000001E2123241927C8
:10541000211010160E000000000000000000000027
:105420000000000000E0180402000000000718203F
:10543000400000020418E0000000004020180700AF
:105440000000404080F0804040000202010F010255
:105450000200000000F0000000000101011F010136
:105460000100000000000000000080B0700000009B
:105470000000000000000000000000010101010127
:1054800001010000000000000000003030000000BA
:105490000000000000008060180400601806010091
:1054A000000000E010080810E000000F102020109D
:1054B0000F00001010F8000000000020203F202006
:1054C000000000700808088870000030282422219D
:1054D0003000003008888848300000182020201153
:1054E0000E000000C02010F8000000070424243F34
:1054F000240000F8088888080800001921202011DD
:105500000E0000E0108888180000000F1120201104
:105510000E0000380808C83808000000003F0000EE
:1055200000000070880808887000001C22212122D9
:105530001C0000E010080810E000000031222211D9
:105540000F00000000C0C00000000000003030006C
:1055500000000000008000000000000080600000EB
:105560000000000080402010080000010204081024
:105570002000404040404040400004040404040433
:1055800004000008102040800000002010080402E1
:105590000100007048080808F000000000303601E3
:1055A0000000C030C828E810E000071827242314A2
:1055B0000B000000C038E0000000203C230202275E
:1055C000382008F8888888700000203F20202011AB
:1055D0000E00C030080808083800071820202010E6
:1055E000080008F808080810E000203F20202010DC
:1055F0000F0008F88888E8081000203F20202320AA
:10560000180008F88888E8081000203F20000300F0
:105610000000C03008080838000007182020221EAB
:10562000020008F808000008F808203F21010121C5
:105630003F20000808F8080800000020203F202034
:10564000000000000808F8080800C08080807F0083
:10565000000008F888C028180800203F20012638DC
:10566000200008F8080000000000203F2020202033
:10567000300008F8F800F8F80800203F003F003F2D
:10568000200008F830C00008F808203F2000071864
:105690003F00E01008080810E0000F102020201044
:1056A0000F0008F808080808F000203F2101010158
:1056B0000000E01008080810E0000F1824243850FB
:1056C0004F0008F8888888887000203F2000030C6D
:1056D0003020007088080808380000382021212276
:1056E0001C00180808F8080818000000203F2000D7
:1056F000000008F808000008F808001F20202020FB
:105700001F000878880000C83808000007380E011C
:105710000000F80800F80008F800033C0700073C08
:105720000300081868808068180820302C03032CB8
:1057300030200838C800C83808000000203F20008A
:10574000000010080808C83808002038262120204A
:105750001800000000FE020202000000007F40402E
:105760004000000C30C000000000000000010638BE
:10577000C00000020202FE000000004040407F0026
:10578000000000000402020204000000000000000B
:105790000000000000000000000080808080808009
:1057A00080800002020400000000000000000000F1
:1057B0000000000080808080000000192422222246
:1057C0003F2008F8008080000000003F11202011D9
:1057D0000E000000008080800000000E11202020BC
:1057E0001100000000808088F800000E11202010B9
:1057F0003F200000808080800000001F22222222A3
:105800001300008080F0888888180020203F202026
:1058100000000000808080808000006B949494934E
:10582000600008F8008080800000203F21000020F8
:105830003F2000809898000000000020203F20209A
:105840000000000000809898000000C08080807FE9
:10585000000008F8000080808000203F24022D30E6
:105860002000000808F8000000000020203F202051
:1058700000008080808080808000203F20003F20CA
:10588000003F8080008080800000203F21000020B9
:105890003F200000808080800000001F202020200A
:1058A0001F00808000808000000080FFA120201168
:1058B0000E000000008080808000000E112020A0DB
:1058C000FF80808080008080800020203F21200099
:1058D0000100000080808080800000332424242484
:1058E0001900008080E0808000000000001F202060
:1058F00000008080000000808000001F2020201019
:105900003F20808080000080808000010E300806EB
:10591000010080800080008080800F300C030C30FC
:105920000F0000808000808080000020312E0E312A
:105930002000808080000080808080818E7018062A
:10594000010000808080808080000021302C222196
:10595000300000000000807C020200000000003FD8
:10596000404000000000FF00000000000000FF00B9
:1059700000000002027C800000000040403F000068
:105980000000000601010202040400000000000003
:105990000000CEC21060028C0000FE9292929292A1
:1059A000FE00000004047E01407E42427E427E42B0
:1059B000427E4000B6C80000FC242424FC25262496
:1059C000FC242424040040308F80844C5525252558
:1059D000554C8080800000006C6564426C696E6B81
:1059E0005461736B0000000064656661756C7454EB
:1059F00061736B006F6C6564546573745461736B91
:105A000000000000245A000800000020B800000038
:105A10009C2F0008DC5A0008B8000020582600001F
:105A2000AC2F000800000000000000000000000093
:105A3000DC05DC05000000000000000000000000A4
:105A40000000000000000000000000000100000055
:105A5000100000000000000000127A0000000000AA
:105A60000000000000000000000000000000000036
:105A70000000000000000000000000000000000026
:105A80000000000000000000000000000000000016
:105A90000000000000000000000000000000000006
:105AA00000000000000000000000000000000000F6
:105AB00000000000000000000000000000000000E6
:105AC00000000000000000000000000000000000D6
:0C5AD00000000000AAAAAAAA0000000022
